{
  "_format": "hh-sol-artifact-1",
  "contractName": "SpellAndTalent",
  "sourceName": "contracts/SpellAndTalent.sol",
  "abi": [
    {
      "inputs": [],
      "stateMutability": "nonpayable",
      "type": "constructor"
    },
    {
      "anonymous": false,
      "inputs": [
        {
          "indexed": true,
          "internalType": "address",
          "name": "owner",
          "type": "address"
        },
        {
          "indexed": true,
          "internalType": "address",
          "name": "approved",
          "type": "address"
        },
        {
          "indexed": true,
          "internalType": "uint256",
          "name": "tokenId",
          "type": "uint256"
        }
      ],
      "name": "Approval",
      "type": "event"
    },
    {
      "anonymous": false,
      "inputs": [
        {
          "indexed": true,
          "internalType": "address",
          "name": "owner",
          "type": "address"
        },
        {
          "indexed": true,
          "internalType": "address",
          "name": "operator",
          "type": "address"
        },
        {
          "indexed": false,
          "internalType": "bool",
          "name": "approved",
          "type": "bool"
        }
      ],
      "name": "ApprovalForAll",
      "type": "event"
    },
    {
      "anonymous": false,
      "inputs": [
        {
          "indexed": true,
          "internalType": "address",
          "name": "previousOwner",
          "type": "address"
        },
        {
          "indexed": true,
          "internalType": "address",
          "name": "newOwner",
          "type": "address"
        }
      ],
      "name": "OwnershipTransferred",
      "type": "event"
    },
    {
      "anonymous": false,
      "inputs": [
        {
          "indexed": true,
          "internalType": "address",
          "name": "from",
          "type": "address"
        },
        {
          "indexed": true,
          "internalType": "address",
          "name": "to",
          "type": "address"
        },
        {
          "indexed": true,
          "internalType": "uint256",
          "name": "tokenId",
          "type": "uint256"
        }
      ],
      "name": "Transfer",
      "type": "event"
    },
    {
      "inputs": [],
      "name": "MAX_PURCHASE",
      "outputs": [
        {
          "internalType": "uint256",
          "name": "",
          "type": "uint256"
        }
      ],
      "stateMutability": "view",
      "type": "function"
    },
    {
      "inputs": [],
      "name": "PRICE",
      "outputs": [
        {
          "internalType": "uint256",
          "name": "",
          "type": "uint256"
        }
      ],
      "stateMutability": "view",
      "type": "function"
    },
    {
      "inputs": [
        {
          "internalType": "address",
          "name": "to",
          "type": "address"
        },
        {
          "internalType": "uint256",
          "name": "tokenId",
          "type": "uint256"
        }
      ],
      "name": "approve",
      "outputs": [],
      "stateMutability": "nonpayable",
      "type": "function"
    },
    {
      "inputs": [
        {
          "internalType": "address",
          "name": "owner",
          "type": "address"
        }
      ],
      "name": "balanceOf",
      "outputs": [
        {
          "internalType": "uint256",
          "name": "",
          "type": "uint256"
        }
      ],
      "stateMutability": "view",
      "type": "function"
    },
    {
      "inputs": [
        {
          "internalType": "uint256",
          "name": "tokenId",
          "type": "uint256"
        }
      ],
      "name": "getApproved",
      "outputs": [
        {
          "internalType": "address",
          "name": "",
          "type": "address"
        }
      ],
      "stateMutability": "view",
      "type": "function"
    },
    {
      "inputs": [
        {
          "internalType": "uint256",
          "name": "tokenId",
          "type": "uint256"
        }
      ],
      "name": "getSkill1",
      "outputs": [
        {
          "internalType": "string",
          "name": "",
          "type": "string"
        },
        {
          "internalType": "bool",
          "name": "",
          "type": "bool"
        }
      ],
      "stateMutability": "view",
      "type": "function"
    },
    {
      "inputs": [
        {
          "internalType": "uint256",
          "name": "tokenId",
          "type": "uint256"
        }
      ],
      "name": "getSkill2",
      "outputs": [
        {
          "internalType": "string",
          "name": "",
          "type": "string"
        },
        {
          "internalType": "bool",
          "name": "",
          "type": "bool"
        }
      ],
      "stateMutability": "view",
      "type": "function"
    },
    {
      "inputs": [
        {
          "internalType": "uint256",
          "name": "tokenId",
          "type": "uint256"
        }
      ],
      "name": "getSkill3",
      "outputs": [
        {
          "internalType": "string",
          "name": "",
          "type": "string"
        },
        {
          "internalType": "bool",
          "name": "",
          "type": "bool"
        }
      ],
      "stateMutability": "view",
      "type": "function"
    },
    {
      "inputs": [
        {
          "internalType": "uint256",
          "name": "tokenId",
          "type": "uint256"
        }
      ],
      "name": "getSkill4",
      "outputs": [
        {
          "internalType": "string",
          "name": "",
          "type": "string"
        },
        {
          "internalType": "bool",
          "name": "",
          "type": "bool"
        }
      ],
      "stateMutability": "view",
      "type": "function"
    },
    {
      "inputs": [
        {
          "internalType": "uint256",
          "name": "tokenId",
          "type": "uint256"
        }
      ],
      "name": "getSkill5",
      "outputs": [
        {
          "internalType": "string",
          "name": "",
          "type": "string"
        },
        {
          "internalType": "bool",
          "name": "",
          "type": "bool"
        }
      ],
      "stateMutability": "view",
      "type": "function"
    },
    {
      "inputs": [
        {
          "internalType": "uint256",
          "name": "tokenId",
          "type": "uint256"
        }
      ],
      "name": "getSkill6",
      "outputs": [
        {
          "internalType": "string",
          "name": "",
          "type": "string"
        },
        {
          "internalType": "bool",
          "name": "",
          "type": "bool"
        }
      ],
      "stateMutability": "view",
      "type": "function"
    },
    {
      "inputs": [
        {
          "internalType": "uint256",
          "name": "tokenId",
          "type": "uint256"
        }
      ],
      "name": "getSkill7",
      "outputs": [
        {
          "internalType": "string",
          "name": "",
          "type": "string"
        },
        {
          "internalType": "bool",
          "name": "",
          "type": "bool"
        }
      ],
      "stateMutability": "view",
      "type": "function"
    },
    {
      "inputs": [
        {
          "internalType": "uint256",
          "name": "tokenId",
          "type": "uint256"
        }
      ],
      "name": "getSkill8",
      "outputs": [
        {
          "internalType": "string",
          "name": "",
          "type": "string"
        },
        {
          "internalType": "bool",
          "name": "",
          "type": "bool"
        }
      ],
      "stateMutability": "view",
      "type": "function"
    },
    {
      "inputs": [
        {
          "internalType": "uint256",
          "name": "tokenId",
          "type": "uint256"
        }
      ],
      "name": "getSkills",
      "outputs": [
        {
          "internalType": "string[16]",
          "name": "",
          "type": "string[16]"
        }
      ],
      "stateMutability": "view",
      "type": "function"
    },
    {
      "inputs": [],
      "name": "increment",
      "outputs": [],
      "stateMutability": "nonpayable",
      "type": "function"
    },
    {
      "inputs": [
        {
          "internalType": "address",
          "name": "owner",
          "type": "address"
        },
        {
          "internalType": "address",
          "name": "operator",
          "type": "address"
        }
      ],
      "name": "isApprovedForAll",
      "outputs": [
        {
          "internalType": "bool",
          "name": "",
          "type": "bool"
        }
      ],
      "stateMutability": "view",
      "type": "function"
    },
    {
      "inputs": [],
      "name": "lootAddress",
      "outputs": [
        {
          "internalType": "address",
          "name": "",
          "type": "address"
        }
      ],
      "stateMutability": "view",
      "type": "function"
    },
    {
      "inputs": [
        {
          "internalType": "uint256",
          "name": "tokenId",
          "type": "uint256"
        }
      ],
      "name": "lootOwnerMint",
      "outputs": [],
      "stateMutability": "nonpayable",
      "type": "function"
    },
    {
      "inputs": [
        {
          "internalType": "uint256",
          "name": "numberOfTokens",
          "type": "uint256"
        }
      ],
      "name": "mint",
      "outputs": [],
      "stateMutability": "payable",
      "type": "function"
    },
    {
      "inputs": [],
      "name": "nAddress",
      "outputs": [
        {
          "internalType": "address",
          "name": "",
          "type": "address"
        }
      ],
      "stateMutability": "view",
      "type": "function"
    },
    {
      "inputs": [
        {
          "internalType": "uint256",
          "name": "tokenId",
          "type": "uint256"
        }
      ],
      "name": "nOwnerMint",
      "outputs": [],
      "stateMutability": "nonpayable",
      "type": "function"
    },
    {
      "inputs": [],
      "name": "name",
      "outputs": [
        {
          "internalType": "string",
          "name": "",
          "type": "string"
        }
      ],
      "stateMutability": "view",
      "type": "function"
    },
    {
      "inputs": [],
      "name": "owner",
      "outputs": [
        {
          "internalType": "address",
          "name": "",
          "type": "address"
        }
      ],
      "stateMutability": "view",
      "type": "function"
    },
    {
      "inputs": [
        {
          "internalType": "uint256",
          "name": "tokenId",
          "type": "uint256"
        }
      ],
      "name": "ownerOf",
      "outputs": [
        {
          "internalType": "address",
          "name": "",
          "type": "address"
        }
      ],
      "stateMutability": "view",
      "type": "function"
    },
    {
      "inputs": [
        {
          "internalType": "uint256",
          "name": "numberOfTokens",
          "type": "uint256"
        }
      ],
      "name": "price",
      "outputs": [
        {
          "internalType": "uint256",
          "name": "",
          "type": "uint256"
        }
      ],
      "stateMutability": "pure",
      "type": "function"
    },
    {
      "inputs": [],
      "name": "renounceOwnership",
      "outputs": [],
      "stateMutability": "nonpayable",
      "type": "function"
    },
    {
      "inputs": [],
      "name": "reserve",
      "outputs": [],
      "stateMutability": "nonpayable",
      "type": "function"
    },
    {
      "inputs": [
        {
          "internalType": "address",
          "name": "from",
          "type": "address"
        },
        {
          "internalType": "address",
          "name": "to",
          "type": "address"
        },
        {
          "internalType": "uint256",
          "name": "tokenId",
          "type": "uint256"
        }
      ],
      "name": "safeTransferFrom",
      "outputs": [],
      "stateMutability": "nonpayable",
      "type": "function"
    },
    {
      "inputs": [
        {
          "internalType": "address",
          "name": "from",
          "type": "address"
        },
        {
          "internalType": "address",
          "name": "to",
          "type": "address"
        },
        {
          "internalType": "uint256",
          "name": "tokenId",
          "type": "uint256"
        },
        {
          "internalType": "bytes",
          "name": "_data",
          "type": "bytes"
        }
      ],
      "name": "safeTransferFrom",
      "outputs": [],
      "stateMutability": "nonpayable",
      "type": "function"
    },
    {
      "inputs": [
        {
          "internalType": "address",
          "name": "operator",
          "type": "address"
        },
        {
          "internalType": "bool",
          "name": "approved",
          "type": "bool"
        }
      ],
      "name": "setApprovalForAll",
      "outputs": [],
      "stateMutability": "nonpayable",
      "type": "function"
    },
    {
      "inputs": [
        {
          "internalType": "bytes4",
          "name": "interfaceId",
          "type": "bytes4"
        }
      ],
      "name": "supportsInterface",
      "outputs": [
        {
          "internalType": "bool",
          "name": "",
          "type": "bool"
        }
      ],
      "stateMutability": "view",
      "type": "function"
    },
    {
      "inputs": [],
      "name": "symbol",
      "outputs": [
        {
          "internalType": "string",
          "name": "",
          "type": "string"
        }
      ],
      "stateMutability": "view",
      "type": "function"
    },
    {
      "inputs": [
        {
          "internalType": "uint256",
          "name": "index",
          "type": "uint256"
        }
      ],
      "name": "tokenByIndex",
      "outputs": [
        {
          "internalType": "uint256",
          "name": "",
          "type": "uint256"
        }
      ],
      "stateMutability": "view",
      "type": "function"
    },
    {
      "inputs": [
        {
          "internalType": "address",
          "name": "owner",
          "type": "address"
        },
        {
          "internalType": "uint256",
          "name": "index",
          "type": "uint256"
        }
      ],
      "name": "tokenOfOwnerByIndex",
      "outputs": [
        {
          "internalType": "uint256",
          "name": "",
          "type": "uint256"
        }
      ],
      "stateMutability": "view",
      "type": "function"
    },
    {
      "inputs": [
        {
          "internalType": "uint256",
          "name": "tokenId",
          "type": "uint256"
        }
      ],
      "name": "tokenURI",
      "outputs": [
        {
          "internalType": "string",
          "name": "",
          "type": "string"
        }
      ],
      "stateMutability": "view",
      "type": "function"
    },
    {
      "inputs": [],
      "name": "totalSupply",
      "outputs": [
        {
          "internalType": "uint256",
          "name": "",
          "type": "uint256"
        }
      ],
      "stateMutability": "view",
      "type": "function"
    },
    {
      "inputs": [
        {
          "internalType": "address",
          "name": "from",
          "type": "address"
        },
        {
          "internalType": "address",
          "name": "to",
          "type": "address"
        },
        {
          "internalType": "uint256",
          "name": "tokenId",
          "type": "uint256"
        }
      ],
      "name": "transferFrom",
      "outputs": [],
      "stateMutability": "nonpayable",
      "type": "function"
    },
    {
      "inputs": [
        {
          "internalType": "address",
          "name": "newOwner",
          "type": "address"
        }
      ],
      "name": "transferOwnership",
      "outputs": [],
      "stateMutability": "nonpayable",
      "type": "function"
    },
    {
      "inputs": [],
      "name": "withdraw",
      "outputs": [],
      "stateMutability": "nonpayable",
      "type": "function"
    }
  ],
  "bytecode": "0x6014600c9081556000600d818155600e9182556101c08381526b2234bb34b732902330bb37b960a11b6101e0526080908152600a61020081815269121bdb1e4814dddbdc9960b21b6102205260a0526102409384526d52656d6f7665204469736561736560901b6102605260c0939093526102809182526c088e4c2cededc4084e4cac2e8d609b1b6102a05260e091909152600f6102c08181526e4e6567617469766520456e6572677960881b6102e052610100526103009384526b4c6179204f6e2048616e647360a01b61032052610120939093526103408381526e41757261204f6620436f757261676560881b6103605261014052601261038090815271436f6e63656e74726174696f6e204175726160701b6103a052610160526103c09283526e44656d6f6e696320456d627261636560881b6103e05261018092909252610440604052600961040090815268536f756c204c696e6b60b81b610420526101a052620001719160119162000e1b565b506040518061014001604052806040518060400160405280600d81526020016c536869656c6420537472696b6560981b81525081526020016040518060400160405280600f81526020016e53756d6d6f6e20437265617475726560881b81525081526020016040518060400160405280600b81526020016a14da18591bddc8109bdb1d60aa1b81525081526020016040518060400160405280600f81526020016e4c696768746e696e672053746f726d60881b81525081526020016040518060400160405280600d81526020016c4b696c6c696e6720537072656560981b81525081526020016040518060400160405280600f81526020016e50726f74656374696f6e204175726160881b81525081526020016040518060400160405280600b81526020016a536861646f77204175726160a81b81525081526020016040518060400160405280601081526020016f4d6167696320526573697374616e636560801b81525081526020016040518060400160405280601081526020016f4d61737465727920456c656d656e747360801b81525081526020016040518060400160405280600a815260200169111d585b0815da595b1960b21b815250815250601290600a6200034192919062000e1b565b506040805161018081018252600a610140820181815269466c616d65205761766560b01b610160840152825282518084018452600d8082526c2232b0b2363c902837b4b9b7b760991b60208381019190915280850192909252845180860186526009815268149859d94814da1bdd60ba1b81840152848601528451808601865283815269131a59da1d081219585b60b21b81840152606085015284518086018652600c8082526b15d85d994813d9881219585b60a21b828501526080860191909152855180870187529081526b46697265204d61737465727960a01b8184015260a085015284518086018652838152694265617374204175726160b01b8184015260c085015284518086018652600781526652616d7061676560c81b8184015260e0850152845180860186529081526c2432b0b634b733902330bb37b960991b81830152610100840152835180850190945260128452712437b63c9021b7b731b2b73a3930ba34b7b760711b90840152610120820192909252620004c9916013919062000e1b565b506040518061014001604052806040518060400160405280600b81526020016a0a6d0d2cad8c84084c2e6d60ab1b815250815260200160405180604001604052806005815260200164109b1a5b9960da1b815250815260200160405180604001604052806006815260200165082dac4eae6d60d31b81525081526020016040518060400160405280600d81526020016c2837bbb2b9102130b93934b2b960991b81525081526020016040518060400160405280601481526020017f53756d6d6f6e205261726520437265617475726500000000000000000000000081525081526020016040518060400160405280600a81526020016929ba37b7329029b5b4b760b11b81525081526020016040518060400160405280600b81526020016a416964204d61737465727960a81b81525081526020016040518060400160405280600d81526020016c446f75626c6520537472696b6560981b81525081526020016040518060400160405280600b81526020016a447261676f6e204675727960a81b81525081526020016040518060400160405280600f81526020016e456c656d656e74616c20466f63757360881b815250815250601490600a6200068e92919062000e1b565b506040805161018081018252600961014082018181526824b6b83637b9b4b7b760b91b610160840152825282518084018452600b8082526a426c6f6f647920436c617760a81b60208381019190915280850192909252845180860186529081526a042727574616c20436c61760ac1b8183015283850152835180850185526011808252705365616c204f662056656e6765616e636560781b828401526060850191909152845180860186528381526853616372696669636560b81b81840152608085015284518086018652600e81526d436f6d626174204d61737465727960901b8184015260a08501528451808601865281815270426c657373656420466f7274697475646560781b8184015260c085015284518086018652600d81526c477265617465722052616e676560981b8184015260e08501528451808601865292835268546f7567686e65737360b81b83830152610100840192909252835180850190945290835270496d70726f766564205265636f7665727960781b908301526101208101919091526200082690601590600a62000e1b565b506040805161018081018252600d61014082018181526c46697265204d697373696c657360981b6101608401528252825180840184526009815268135d5d194814da1bdd60ba1b6020828101919091528084019190915283518085018552600c81526b2932b9bab93932b1ba34b7b760a11b818301528385015283518085018552600a8082526920b936b0b3b2b23237b760b11b8284015260608501919091528451808601865260078152664265727365726b60c81b818401526080850152845180860186528381526c446f646765204d61737465727960981b8184015260a085015284518086018652601081526f496e73706972696e6720537472696b6560801b8184015260c085015284518086018652601581527f576561706f6e205370656369616c697a6174696f6e00000000000000000000008184015260e085015284518086018652600e81526d47696674204f66204e617475726560901b8184015261010085015284518086019095529184526c15da5b1908125b9cdd1a5b98dd609a1b90840152610120820192909252620009c5916016919062000e1b565b50604080516101808101825260096101408201818152684879706e6f74697a6560b81b61016084015282528251808401845260048152634661646560e01b602082810191909152808401919091528351808501855260088152675765616b6e65737360c01b818301528385015283518085018552600a808252691219585d9e481cda1bdd60b21b82840152606085019190915284518086018652600d8082526c48616d6d657220537472696b6560981b8285015260808601919091528551808701875282815269456666696369656e637960b01b8185015260a08601528551808701875284815268283932b1b4b9b4b7b760b91b8185015260c086015285518087018752600e81526d496d70726f76656420486173746560901b8185015260e08601528551808701875293845268109b1bdbd91b1d5cdd60ba1b8484015261010085019390935284518086019095529184526c5365636f6e64204368616e636560981b9084015261012082019290925262000b44916017919062000e1b565b506040805161018081018252601061014082019081526f2432b0b634b7339023bab0b93234b0b760811b610160830152815281518083018352600c8082526b47686f737420537472696b6560a01b60208381019190915280840192909252835180850185529081526b135859da58c814da1a595b1960a21b818301528284015282518084018452600980825268109b18591959985b1b60ba1b82840152606084019190915283518085018552600b81526a14da18591bddc8109bdb1d60aa1b818401526080840152835180850185526005815264466f63757360d81b8184015260a084015283518085018552600f81526e2ab73632b0b9b432b21020b733b2b960891b8184015260c084015283518085018552600681526529b630bcb2b960d11b8184015260e0840152835180850185529081526849726f6e20486f706560b81b818301526101008301528251808401909352601583527f457465726e616c204f6e657320426c657373696e6700000000000000000000009083015261012081019190915262000cd990601890600a62000e1b565b506019805473b3876a5af69063ba88311a7460e540524af7e7a36001600160a01b03199182168117909255601a80548216909217909155601b805473514a8d2808f24f2604c7ea464bf3a58e5b6dc2ce9083168117909155601c805490921617905534801562000d4857600080fd5b50604080518082018252600e81526d14dc195b1b105b9915185b195b9d60921b60208083019182528351808501909452600384526214d05560ea1b90840152815191929162000d9a9160009162000e7f565b50805162000db090600190602084019062000e7f565b50506001600a555062000dc33362000dc9565b62000fc1565b600b80546001600160a01b038381166001600160a01b0319831681179093556040519116919082907f8be0079c531659141344cd1fd0a4f28419497f9722a3daafe3b4186f6b6457e090600090a35050565b82805482825590600052602060002090810192821562000e6d579160200282015b8281111562000e6d578251805162000e5c91849160209091019062000e7f565b509160200191906001019062000e3c565b5062000e7b92915062000f0a565b5090565b82805462000e8d9062000f84565b90600052602060002090601f01602090048101928262000eb1576000855562000efc565b82601f1062000ecc57805160ff191683800117855562000efc565b8280016001018555821562000efc579182015b8281111562000efc57825182559160200191906001019062000edf565b5062000e7b92915062000f2b565b8082111562000e7b57600062000f21828262000f42565b5060010162000f0a565b5b8082111562000e7b576000815560010162000f2c565b50805462000f509062000f84565b6000825580601f1062000f61575050565b601f01602090049060005260206000209081019062000f81919062000f2b565b50565b600181811c9082168062000f9957607f821691505b6020821081141562000fbb57634e487b7160e01b600052602260045260246000fd5b50919050565b613bdc8062000fd16000396000f3fe60806040526004361061029f5760003560e01c806370a082311161016e578063a22cb465116100cb578063cd3293de1161007f578063d333232c11610064578063d333232c1461071d578063e985e9c51461073d578063f2fde38b1461078657600080fd5b8063cd3293de146106f3578063d09de08a1461070857600080fd5b8063b88d4fde116100b0578063b88d4fde14610693578063bded6e06146106b3578063c87b56dd146106d357600080fd5b8063a22cb46514610653578063b741dea61461067357600080fd5b80638da5cb5b116101225780639dd69813116101075780639dd69813146106005780639f71f30b14610620578063a0712d681461064057600080fd5b80638da5cb5b146105cd57806395d89b41146105eb57600080fd5b8063715018a611610153578063715018a61461057d5780638c01af8c146105925780638d859f3e146105b257600080fd5b806370a08231146105485780637146bd081461056857600080fd5b80632f745c591161021c57806359b1f856116101d0578063662482ff116101b5578063662482ff146104e85780636a130cac146105085780636b0f2d211461052857600080fd5b806359b1f856146104a85780636352211e146104c857600080fd5b806342842e0e1161020157806342842e0e1461043a5780634e0e6fe71461045a5780634f6ccce71461048857600080fd5b80632f745c59146104055780633ccfd60b1461042557600080fd5b8063095ea7b31161027357806318160ddd1161025857806318160ddd146103a657806323b872dd146103c557806326a49e37146103e557600080fd5b8063095ea7b3146103645780630e4393261461038657600080fd5b806292bf78146102a457806301ffc9a7146102da57806306fdde031461030a578063081812fc1461032c575b600080fd5b3480156102b057600080fd5b506102c46102bf36600461340a565b6107a6565b6040516102d1919061389d565b60405180910390f35b3480156102e657600080fd5b506102fa6102f53660046133d0565b610ac6565b60405190151581526020016102d1565b34801561031657600080fd5b5061031f610af1565b6040516102d191906138eb565b34801561033857600080fd5b5061034c61034736600461340a565b610b83565b6040516001600160a01b0390911681526020016102d1565b34801561037057600080fd5b5061038461037f3660046133a4565b610c1d565b005b34801561039257600080fd5b5060195461034c906001600160a01b031681565b3480156103b257600080fd5b506008545b6040519081526020016102d1565b3480156103d157600080fd5b506103846103e0366004613250565b610d33565b3480156103f157600080fd5b506103b761040036600461340a565b610dba565b34801561041157600080fd5b506103b76104203660046133a4565b610dcd565b34801561043157600080fd5b50610384610e75565b34801561044657600080fd5b50610384610455366004613250565b610efe565b34801561046657600080fd5b5061047a61047536600461340a565b610f19565b6040516102d19291906138fe565b34801561049457600080fd5b506103b76104a336600461340a565b611037565b3480156104b457600080fd5b5061047a6104c336600461340a565b6110db565b3480156104d457600080fd5b5061034c6104e336600461340a565b6111e7565b3480156104f457600080fd5b5061047a61050336600461340a565b611272565b34801561051457600080fd5b5061047a61052336600461340a565b61137e565b34801561053457600080fd5b5061038461054336600461340a565b61148a565b34801561055457600080fd5b506103b76105633660046131dd565b6115bf565b34801561057457600080fd5b506103b7600681565b34801561058957600080fd5b50610384611659565b34801561059e57600080fd5b5061047a6105ad36600461340a565b6116bf565b3480156105be57600080fd5b506103b7662386f26fc1000081565b3480156105d957600080fd5b50600b546001600160a01b031661034c565b3480156105f757600080fd5b5061031f6117cb565b34801561060c57600080fd5b5061047a61061b36600461340a565b6117da565b34801561062c57600080fd5b5061047a61063b36600461340a565b6118e6565b61038461064e36600461340a565b6119f2565b34801561065f57600080fd5b5061038461066e366004613371565b611aa4565b34801561067f57600080fd5b5061047a61068e36600461340a565b611b69565b34801561069f57600080fd5b506103846106ae366004613291565b611c75565b3480156106bf57600080fd5b506103846106ce36600461340a565b611d03565b3480156106df57600080fd5b5061031f6106ee36600461340a565b611e2b565b3480156106ff57600080fd5b50610384612032565b34801561071457600080fd5b50610384612096565b34801561072957600080fd5b50601b5461034c906001600160a01b031681565b34801561074957600080fd5b506102fa610758366004613217565b6001600160a01b03918216600090815260056020908152604080832093909416825291909152205460ff1690565b34801561079257600080fd5b506103846107a13660046131dd565b612107565b6107ae61319a565b6107b661319a565b6000600881806107c587611272565b9150915080156107f7578185856107db816139eb565b9650601081106107ed576107ed613a5c565b602002015261081b565b818584610803816139eb565b95506010811061081557610815613a5c565b60200201525b6108248761137e565b909250905080156108575781858561083b816139eb565b96506010811061084d5761084d613a5c565b602002015261087b565b818584610863816139eb565b95506010811061087557610875613a5c565b60200201525b610884876117da565b909250905080156108b75781858561089b816139eb565b9650601081106108ad576108ad613a5c565b60200201526108db565b8185846108c3816139eb565b9550601081106108d5576108d5613a5c565b60200201525b6108e487611b69565b90925090508015610917578185856108fb816139eb565b96506010811061090d5761090d613a5c565b602002015261093b565b818584610923816139eb565b95506010811061093557610935613a5c565b60200201525b610944876118e6565b909250905080156109775781858561095b816139eb565b96506010811061096d5761096d613a5c565b602002015261099b565b818584610983816139eb565b95506010811061099557610995613a5c565b60200201525b6109a487610f19565b909250905080156109d7578185856109bb816139eb565b9650601081106109cd576109cd613a5c565b60200201526109fb565b8185846109e3816139eb565b9550601081106109f5576109f5613a5c565b60200201525b610a04876116bf565b90925090508015610a3757818585610a1b816139eb565b965060108110610a2d57610a2d613a5c565b6020020152610a5b565b818584610a43816139eb565b955060108110610a5557610a55613a5c565b60200201525b610a64876110db565b90925090508015610a9757818585610a7b816139eb565b965060108110610a8d57610a8d613a5c565b6020020152610abb565b818584610aa3816139eb565b955060108110610ab557610ab5613a5c565b60200201525b509295945050505050565b60006001600160e01b0319821663780e9d6360e01b1480610aeb5750610aeb826121e6565b92915050565b606060008054610b00906139b0565b80601f0160208091040260200160405190810160405280929190818152602001828054610b2c906139b0565b8015610b795780601f10610b4e57610100808354040283529160200191610b79565b820191906000526020600020905b815481529060010190602001808311610b5c57829003601f168201915b5050505050905090565b6000818152600260205260408120546001600160a01b0316610c015760405162461bcd60e51b815260206004820152602c60248201527f4552433732313a20617070726f76656420717565727920666f72206e6f6e657860448201526b34b9ba32b73a103a37b5b2b760a11b60648201526084015b60405180910390fd5b506000908152600460205260409020546001600160a01b031690565b6000610c28826111e7565b9050806001600160a01b0316836001600160a01b03161415610c965760405162461bcd60e51b815260206004820152602160248201527f4552433732313a20617070726f76616c20746f2063757272656e74206f776e656044820152603960f91b6064820152608401610bf8565b336001600160a01b0382161480610cb25750610cb28133610758565b610d245760405162461bcd60e51b815260206004820152603860248201527f4552433732313a20617070726f76652063616c6c6572206973206e6f74206f7760448201527f6e6572206e6f7220617070726f76656420666f7220616c6c00000000000000006064820152608401610bf8565b610d2e8383612236565b505050565b610d3d33826122a4565b610daf5760405162461bcd60e51b815260206004820152603160248201527f4552433732313a207472616e736665722063616c6c6572206973206e6f74206f60448201527f776e6572206e6f7220617070726f7665640000000000000000000000000000006064820152608401610bf8565b610d2e83838361239b565b6000610aeb662386f26fc100008361255a565b6000610dd8836115bf565b8210610e4c5760405162461bcd60e51b815260206004820152602b60248201527f455243373231456e756d657261626c653a206f776e657220696e646578206f7560448201527f74206f6620626f756e64730000000000000000000000000000000000000000006064820152608401610bf8565b506001600160a01b03919091166000908152600660209081526040808320938352929052205490565b600b546001600160a01b03163314610ecf5760405162461bcd60e51b815260206004820181905260248201527f4f776e61626c653a2063616c6c6572206973206e6f7420746865206f776e65726044820152606401610bf8565b60405133904780156108fc02916000818181858888f19350505050158015610efb573d6000803e3d6000fd5b50565b610d2e83838360405180602001604052806000815250611c75565b6060600061102e836040518060400160405280600881526020017f534b494c4c5349580000000000000000000000000000000000000000000000008152506016805480602002602001604051908101604052809291908181526020016000905b82821015611025578382906000526020600020018054610f98906139b0565b80601f0160208091040260200160405190810160405280929190818152602001828054610fc4906139b0565b80156110115780601f10610fe657610100808354040283529160200191611011565b820191906000526020600020905b815481529060010190602001808311610ff457829003601f168201915b505050505081526020019060010190610f79565b5050505061256d565b91509150915091565b600061104260085490565b82106110b65760405162461bcd60e51b815260206004820152602c60248201527f455243373231456e756d657261626c653a20676c6f62616c20696e646578206f60448201527f7574206f6620626f756e647300000000000000000000000000000000000000006064820152608401610bf8565b600882815481106110c9576110c9613a5c565b90600052602060002001549050919050565b6060600061102e836040518060400160405280600a81526020017f534b494c4c4549474854000000000000000000000000000000000000000000008152506018805480602002602001604051908101604052809291908181526020016000905b8282101561102557838290600052602060002001805461115a906139b0565b80601f0160208091040260200160405190810160405280929190818152602001828054611186906139b0565b80156111d35780601f106111a8576101008083540402835291602001916111d3565b820191906000526020600020905b8154815290600101906020018083116111b657829003601f168201915b50505050508152602001906001019061113b565b6000818152600260205260408120546001600160a01b031680610aeb5760405162461bcd60e51b815260206004820152602960248201527f4552433732313a206f776e657220717565727920666f72206e6f6e657869737460448201527f656e7420746f6b656e00000000000000000000000000000000000000000000006064820152608401610bf8565b6060600061102e836040518060400160405280600881526020017f534b494c4c4f4e450000000000000000000000000000000000000000000000008152506011805480602002602001604051908101604052809291908181526020016000905b828210156110255783829060005260206000200180546112f1906139b0565b80601f016020809104026020016040519081016040528092919081815260200182805461131d906139b0565b801561136a5780601f1061133f5761010080835404028352916020019161136a565b820191906000526020600020905b81548152906001019060200180831161134d57829003601f168201915b5050505050815260200190600101906112d2565b6060600061102e836040518060400160405280600881526020017f534b494c4c54574f0000000000000000000000000000000000000000000000008152506012805480602002602001604051908101604052809291908181526020016000905b828210156110255783829060005260206000200180546113fd906139b0565b80601f0160208091040260200160405190810160405280929190818152602001828054611429906139b0565b80156114765780601f1061144b57610100808354040283529160200191611476565b820191906000526020600020905b81548152906001019060200180831161145957829003601f168201915b5050505050815260200190600101906113de565b6002600a5414156114dd5760405162461bcd60e51b815260206004820152601f60248201527f5265656e7472616e637947756172643a207265656e7472616e742063616c6c006044820152606401610bf8565b6002600a55600c54600d54106115215760405162461bcd60e51b8152602060048201526009602482015268453a4e4f5f4d4f524560b81b6044820152606401610bf8565b6000818152600f602052604090205460ff16156115715760405162461bcd60e51b815260206004820152600e60248201526d453a544f4b454e5f45584953545360901b6044820152606401610bf8565b601a5461158b908290601f906001600160a01b03166125e3565b6000818152600f60205260408120805460ff19166001179055600d8054916115b2836139eb565b90915550506001600a5550565b60006001600160a01b03821661163d5760405162461bcd60e51b815260206004820152602a60248201527f4552433732313a2062616c616e636520717565727920666f7220746865207a6560448201527f726f2061646472657373000000000000000000000000000000000000000000006064820152608401610bf8565b506001600160a01b031660009081526003602052604090205490565b600b546001600160a01b031633146116b35760405162461bcd60e51b815260206004820181905260248201527f4f776e61626c653a2063616c6c6572206973206e6f7420746865206f776e65726044820152606401610bf8565b6116bd60006127ec565b565b6060600061102e836040518060400160405280600a81526020017f534b494c4c534556454e000000000000000000000000000000000000000000008152506017805480602002602001604051908101604052809291908181526020016000905b8282101561102557838290600052602060002001805461173e906139b0565b80601f016020809104026020016040519081016040528092919081815260200182805461176a906139b0565b80156117b75780601f1061178c576101008083540402835291602001916117b7565b820191906000526020600020905b81548152906001019060200180831161179a57829003601f168201915b50505050508152602001906001019061171f565b606060018054610b00906139b0565b6060600061102e836040518060400160405280600a81526020017f534b494c4c5448524545000000000000000000000000000000000000000000008152506013805480602002602001604051908101604052809291908181526020016000905b82821015611025578382906000526020600020018054611859906139b0565b80601f0160208091040260200160405190810160405280929190818152602001828054611885906139b0565b80156118d25780601f106118a7576101008083540402835291602001916118d2565b820191906000526020600020905b8154815290600101906020018083116118b557829003601f168201915b50505050508152602001906001019061183a565b6060600061102e836040518060400160405280600981526020017f534b494c4c4649564500000000000000000000000000000000000000000000008152506015805480602002602001604051908101604052809291908181526020016000905b82821015611025578382906000526020600020018054611965906139b0565b80601f0160208091040260200160405190810160405280929190818152602001828054611991906139b0565b80156119de5780601f106119b3576101008083540402835291602001916119de565b820191906000526020600020905b8154815290600101906020018083116119c157829003601f168201915b505050505081526020019060010190611946565b6006811115611a435760405162461bcd60e51b815260206004820152600e60248201527f453a4d41585f50555243484153450000000000000000000000000000000000006044820152606401610bf8565b34611a4d82610dba565b1115611a9b5760405162461bcd60e51b815260206004820152601360248201527f453a494e56414c49445f4554485f56414c5545000000000000000000000000006044820152606401610bf8565b610efb8161283e565b6001600160a01b038216331415611afd5760405162461bcd60e51b815260206004820152601960248201527f4552433732313a20617070726f766520746f2063616c6c6572000000000000006044820152606401610bf8565b3360008181526005602090815260408083206001600160a01b03871680855290835292819020805460ff191686151590811790915590519081529192917f17307eab39ab6107e8899845ad3d59bd9653f200f220920489ca2b5937696c31910160405180910390a35050565b6060600061102e836040518060400160405280600981526020017f534b494c4c464f555200000000000000000000000000000000000000000000008152506014805480602002602001604051908101604052809291908181526020016000905b82821015611025578382906000526020600020018054611be8906139b0565b80601f0160208091040260200160405190810160405280929190818152602001828054611c14906139b0565b8015611c615780601f10611c3657610100808354040283529160200191611c61565b820191906000526020600020905b815481529060010190602001808311611c4457829003601f168201915b505050505081526020019060010190611bc9565b611c7f33836122a4565b611cf15760405162461bcd60e51b815260206004820152603160248201527f4552433732313a207472616e736665722063616c6c6572206973206e6f74206f60448201527f776e6572206e6f7220617070726f7665640000000000000000000000000000006064820152608401610bf8565b611cfd848484846128dd565b50505050565b6002600a541415611d565760405162461bcd60e51b815260206004820152601f60248201527f5265656e7472616e637947756172643a207265656e7472616e742063616c6c006044820152606401610bf8565b6002600a55600c54600e5410611d9a5760405162461bcd60e51b8152602060048201526009602482015268453a4e4f5f4d4f524560b81b6044820152606401610bf8565b60008181526010602052604090205460ff1615611dea5760405162461bcd60e51b815260206004820152600e60248201526d453a544f4b454e5f45584953545360901b6044820152606401610bf8565b601c54611e04908290602a906001600160a01b03166125e3565b6000818152601060205260408120805460ff19166001179055600e8054916115b2836139eb565b60606000611e38836107a6565b905060006001611e466131c2565b60405180610100016040528060dc8152602001613af460dc9139815260005b6010811015611f1257848160108110611e8057611e80613a5c565b602002015151611e8f57611f00565b611e9a601485613922565b9350611ea58461295b565b858260108110611eb757611eb7613a5c565b6020020151604051602001611ecd92919061358f565b604051602081830303815290604052828480611ee8906139eb565b9550600a8110611efa57611efa613a5c565b60200201525b80611f0a816139eb565b915050611e65565b50604080518082018252600681527f3c2f7376673e0000000000000000000000000000000000000000000000000000602080830191909152610120840191909152825183820151848401516060860151608087015160a088015160c089015160e08a01516101008b0151995160009a611f8d9a9091016134cf565b60408051808303601f1901815290829052610120840151909250611fb6918391906020016134a0565b60405160208183030381529060405290506000612003611fd58961295b565b611fde84612a71565b604051602001611fef92919061363a565b604051602081830303815290604052612a71565b905080604051602001612016919061381c565b60408051601f1981840301815291905298975050505050505050565b600b546001600160a01b0316331461208c5760405162461bcd60e51b815260206004820181905260248201527f4f776e61626c653a2063616c6c6572206973206e6f7420746865206f776e65726044820152606401610bf8565b6116bd600a61283e565b600b546001600160a01b031633146120f05760405162461bcd60e51b815260206004820181905260248201527f4f776e61626c653a2063616c6c6572206973206e6f7420746865206f776e65726044820152606401610bf8565b600c8054906000612100836139eb565b9190505550565b600b546001600160a01b031633146121615760405162461bcd60e51b815260206004820181905260248201527f4f776e61626c653a2063616c6c6572206973206e6f7420746865206f776e65726044820152606401610bf8565b6001600160a01b0381166121dd5760405162461bcd60e51b815260206004820152602660248201527f4f776e61626c653a206e6577206f776e657220697320746865207a65726f206160448201527f64647265737300000000000000000000000000000000000000000000000000006064820152608401610bf8565b610efb816127ec565b60006001600160e01b031982166380ac58cd60e01b148061221757506001600160e01b03198216635b5e139f60e01b145b80610aeb57506301ffc9a760e01b6001600160e01b0319831614610aeb565b600081815260046020526040902080546001600160a01b0319166001600160a01b038416908117909155819061226b826111e7565b6001600160a01b03167f8c5be1e5ebec7d5bd14f71427d1e84f3dd0314c0f7b2291e5b200ac8c7c3b92560405160405180910390a45050565b6000818152600260205260408120546001600160a01b031661231d5760405162461bcd60e51b815260206004820152602c60248201527f4552433732313a206f70657261746f7220717565727920666f72206e6f6e657860448201526b34b9ba32b73a103a37b5b2b760a11b6064820152608401610bf8565b6000612328836111e7565b9050806001600160a01b0316846001600160a01b031614806123635750836001600160a01b031661235884610b83565b6001600160a01b0316145b8061239357506001600160a01b0380821660009081526005602090815260408083209388168352929052205460ff165b949350505050565b826001600160a01b03166123ae826111e7565b6001600160a01b03161461242a5760405162461bcd60e51b815260206004820152602960248201527f4552433732313a207472616e73666572206f6620746f6b656e2074686174206960448201527f73206e6f74206f776e00000000000000000000000000000000000000000000006064820152608401610bf8565b6001600160a01b03821661248c5760405162461bcd60e51b8152602060048201526024808201527f4552433732313a207472616e7366657220746f20746865207a65726f206164646044820152637265737360e01b6064820152608401610bf8565b612497838383612bd7565b6124a2600082612236565b6001600160a01b03831660009081526003602052604081208054600192906124cb90849061396d565b90915550506001600160a01b03821660009081526003602052604081208054600192906124f9908490613922565b909155505060008181526002602052604080822080546001600160a01b0319166001600160a01b0386811691821790925591518493918716917fddf252ad1be2c89b69c2b068fc378daa952ba7f163c4a11628f55a4df523b3ef91a4505050565b6000612566828461394e565b9392505050565b60606000806125a48561257f8861295b565b6040516020016125909291906134a0565b604051602081830303815290604052612c8f565b905060008451826125b59190613a06565b90508481815181106125c9576125c9613a5c565b602002602001015160058210935093505050935093915050565b6000831180156125f257508183105b61263e5760405162461bcd60e51b815260206004820152600f60248201527f453a494e56414c49445f544f4b454e00000000000000000000000000000000006044820152606401610bf8565b606461264960085490565b111561268a5760405162461bcd60e51b815260206004820152601060248201526f453a494e56414c49445f535550504c5960801b6044820152606401610bf8565b6040516370a0823160e01b81523360048201526000906001600160a01b038316906370a082319060240160206040518083038186803b1580156126cc57600080fd5b505afa1580156126e0573d6000803e3d6000fd5b505050506040513d601f19601f820116820180604052508101906127049190613423565b1180156127945750336040516331a9108f60e11b8152600481018590526001600160a01b0391821691831690636352211e9060240160206040518083038186803b15801561275157600080fd5b505afa158015612765573d6000803e3d6000fd5b505050506040513d601f19601f8201168201806040525081019061278991906131fa565b6001600160a01b0316145b6127e05760405162461bcd60e51b815260206004820152600d60248201527f453a57524f4e475f4f574e4552000000000000000000000000000000000000006044820152606401610bf8565b610d2e33600854612cc0565b600b80546001600160a01b038381166001600160a01b0319831681179093556040519116919082907f8be0079c531659141344cd1fd0a4f28419497f9722a3daafe3b4186f6b6457e090600090a35050565b60646128538261284d60085490565b90612cda565b106128935760405162461bcd60e51b815260206004820152601060248201526f453a494e56414c49445f535550504c5960801b6044820152606401610bf8565b60005b818110156128d95760006128a960085490565b905060646128b660085490565b10156128c6576128c63382612cc0565b50806128d1816139eb565b915050612896565b5050565b6128e884848461239b565b6128f484848484612ce6565b611cfd5760405162461bcd60e51b815260206004820152603260248201527f4552433732313a207472616e7366657220746f206e6f6e20455243373231526560448201527131b2b4bb32b91034b6b83632b6b2b73a32b960711b6064820152608401610bf8565b60608161297f5750506040805180820190915260018152600360fc1b602082015290565b8160005b81156129a95780612993816139eb565b91506129a29050600a8361393a565b9150612983565b60008167ffffffffffffffff8111156129c4576129c4613a72565b6040519080825280601f01601f1916602001820160405280156129ee576020820181803683370190505b5090505b841561239357612a0360018361396d565b9150612a10600a86613a06565b612a1b906030613922565b60f81b818381518110612a3057612a30613a5c565b60200101907effffffffffffffffffffffffffffffffffffffffffffffffffffffffffffff1916908160001a905350612a6a600a8661393a565b94506129f2565b805160609080612a91575050604080516020810190915260008152919050565b60006003612aa0836002613922565b612aaa919061393a565b612ab590600461394e565b90506000612ac4826020613922565b67ffffffffffffffff811115612adc57612adc613a72565b6040519080825280601f01601f191660200182016040528015612b06576020820181803683370190505b5090506000604051806060016040528060408152602001613ab4604091399050600181016020830160005b86811015612b92576003818a01810151603f601282901c8116860151600c83901c8216870151600684901c831688015192909316870151600891821b60ff94851601821b92841692909201901b91160160e01b835260049092019101612b31565b506003860660018114612bac5760028114612bbd57612bc9565b613d3d60f01b600119830152612bc9565b603d60f81b6000198301525b505050918152949350505050565b6001600160a01b038316612c3257612c2d81600880546000838152600960205260408120829055600182018355919091527ff3f7a9fe364faab93b216da50a3214154f22a0a2b415b23a84c8169e8b636ee30155565b612c55565b816001600160a01b0316836001600160a01b031614612c5557612c558382612e3e565b6001600160a01b038216612c6c57610d2e81612edb565b826001600160a01b0316826001600160a01b031614610d2e57610d2e8282612f8a565b600081604051602001612ca29190613484565b60408051601f19818403018152919052805160209091012092915050565b6128d9828260405180602001604052806000815250612fce565b60006125668284613922565b60006001600160a01b0384163b15612e3357604051630a85bd0160e11b81526001600160a01b0385169063150b7a0290612d2a903390899088908890600401613861565b602060405180830381600087803b158015612d4457600080fd5b505af1925050508015612d74575060408051601f3d908101601f19168201909252612d71918101906133ed565b60015b612e19573d808015612da2576040519150601f19603f3d011682016040523d82523d6000602084013e612da7565b606091505b508051612e115760405162461bcd60e51b815260206004820152603260248201527f4552433732313a207472616e7366657220746f206e6f6e20455243373231526560448201527131b2b4bb32b91034b6b83632b6b2b73a32b960711b6064820152608401610bf8565b805181602001fd5b6001600160e01b031916630a85bd0160e11b149050612393565b506001949350505050565b60006001612e4b846115bf565b612e55919061396d565b600083815260076020526040902054909150808214612ea8576001600160a01b03841660009081526006602090815260408083208584528252808320548484528184208190558352600790915290208190555b5060009182526007602090815260408084208490556001600160a01b039094168352600681528383209183525290812055565b600854600090612eed9060019061396d565b60008381526009602052604081205460088054939450909284908110612f1557612f15613a5c565b906000526020600020015490508060088381548110612f3657612f36613a5c565b6000918252602080832090910192909255828152600990915260408082208490558582528120556008805480612f6e57612f6e613a46565b6001900381819060005260206000200160009055905550505050565b6000612f95836115bf565b6001600160a01b039093166000908152600660209081526040808320868452825280832085905593825260079052919091209190915550565b612fd8838361304c565b612fe56000848484612ce6565b610d2e5760405162461bcd60e51b815260206004820152603260248201527f4552433732313a207472616e7366657220746f206e6f6e20455243373231526560448201527131b2b4bb32b91034b6b83632b6b2b73a32b960711b6064820152608401610bf8565b6001600160a01b0382166130a25760405162461bcd60e51b815260206004820181905260248201527f4552433732313a206d696e7420746f20746865207a65726f20616464726573736044820152606401610bf8565b6000818152600260205260409020546001600160a01b0316156131075760405162461bcd60e51b815260206004820152601c60248201527f4552433732313a20746f6b656e20616c7265616479206d696e746564000000006044820152606401610bf8565b61311360008383612bd7565b6001600160a01b038216600090815260036020526040812080546001929061313c908490613922565b909155505060008181526002602052604080822080546001600160a01b0319166001600160a01b03861690811790915590518392907fddf252ad1be2c89b69c2b068fc378daa952ba7f163c4a11628f55a4df523b3ef908290a45050565b6040518061020001604052806010905b60608152602001906001900390816131aa5790505090565b604080516101408101909152606081526009602082016131aa565b6000602082840312156131ef57600080fd5b813561256681613a88565b60006020828403121561320c57600080fd5b815161256681613a88565b6000806040838503121561322a57600080fd5b823561323581613a88565b9150602083013561324581613a88565b809150509250929050565b60008060006060848603121561326557600080fd5b833561327081613a88565b9250602084013561328081613a88565b929592945050506040919091013590565b600080600080608085870312156132a757600080fd5b84356132b281613a88565b935060208501356132c281613a88565b925060408501359150606085013567ffffffffffffffff808211156132e657600080fd5b818701915087601f8301126132fa57600080fd5b81358181111561330c5761330c613a72565b604051601f8201601f19908116603f0116810190838211818310171561333457613334613a72565b816040528281528a602084870101111561334d57600080fd5b82602086016020830137600060208483010152809550505050505092959194509250565b6000806040838503121561338457600080fd5b823561338f81613a88565b91506020830135801515811461324557600080fd5b600080604083850312156133b757600080fd5b82356133c281613a88565b946020939093013593505050565b6000602082840312156133e257600080fd5b813561256681613a9d565b6000602082840312156133ff57600080fd5b815161256681613a9d565b60006020828403121561341c57600080fd5b5035919050565b60006020828403121561343557600080fd5b5051919050565b60008151808452613454816020860160208601613984565b601f01601f19169290920160200192915050565b6000815161347a818560208601613984565b9290920192915050565b60008251613496818460208701613984565b9190910192915050565b600083516134b2818460208801613984565b8351908301906134c6818360208801613984565b01949350505050565b60008a516134e1818460208f01613984565b8a516134f38183860160208f01613984565b8a519184010190613508818360208e01613984565b895161351a8183850160208e01613984565b8951929091010190613530818360208c01613984565b87516135428183850160208c01613984565b8751929091010190613558818360208a01613984565b855191019061356b818360208901613984565b845161357d8183850160208901613984565b9101019b9a5050505050505050505050565b7f3c7465787420783d2231302220793d22000000000000000000000000000000008152600083516135c7816010850160208801613984565b7f2220636c6173733d2262617365223e0000000000000000000000000000000000601091840191820152835161360481601f840160208801613984565b7f3c2f746578743e00000000000000000000000000000000000000000000000000601f9290910191820152602601949350505050565b7f7b226e616d65223a20224261672023000000000000000000000000000000000081526000835161367281600f850160208801613984565b7f222c20226465736372697074696f6e223a20225370656c6c20262054616c656e600f918401918201527f742069732072616e646f6d6c792067656e65726174656420736b696c6c732066602f8201527f6f7220616476656e7475726572732e20436f6d62696e65207468656d20776974604f8201527f6820616e79206f7468657220236c6f6f74206f7220236e202e2e2e20616e6420606f8201527f6761696e20706f776572206265796f6e642074686520696d6167696e6174696f608f8201527f6e21204d6978696e67207468656d20746f676574686572206c657420796f752060af8201527f6f766572636f6d6520616c6c2074686520646966666963756c7469657320616e60cf8201527f6420637265617465207468652067726561746573742073746f726965732e222c60ef8201527f2022696d616765223a2022646174613a696d6167652f7376672b786d6c3b626161010f8201527f736536342c00000000000000000000000000000000000000000000000000000061012f820152613813613805610134830186613468565b61227d60f01b815260020190565b95945050505050565b7f646174613a6170706c69636174696f6e2f6a736f6e3b6261736536342c00000081526000825161385481601d850160208701613984565b91909101601d0192915050565b60006001600160a01b03808716835280861660208401525083604083015260806060830152613893608083018461343c565b9695505050505050565b6020808252600090610220830183820185845b60108110156138df57601f198785030183526138cd84835161343c565b935091840191908401906001016138b0565b50919695505050505050565b602081526000612566602083018461343c565b604081526000613911604083018561343c565b905082151560208301529392505050565b6000821982111561393557613935613a1a565b500190565b60008261394957613949613a30565b500490565b600081600019048311821515161561396857613968613a1a565b500290565b60008282101561397f5761397f613a1a565b500390565b60005b8381101561399f578181015183820152602001613987565b83811115611cfd5750506000910152565b600181811c908216806139c457607f821691505b602082108114156139e557634e487b7160e01b600052602260045260246000fd5b50919050565b60006000198214156139ff576139ff613a1a565b5060010190565b600082613a1557613a15613a30565b500690565b634e487b7160e01b600052601160045260246000fd5b634e487b7160e01b600052601260045260246000fd5b634e487b7160e01b600052603160045260246000fd5b634e487b7160e01b600052603260045260246000fd5b634e487b7160e01b600052604160045260246000fd5b6001600160a01b0381168114610efb57600080fd5b6001600160e01b031981168114610efb57600080fdfe4142434445464748494a4b4c4d4e4f505152535455565758595a6162636465666768696a6b6c6d6e6f707172737475767778797a303132333435363738392b2f3c73766720786d6c6e733d22687474703a2f2f7777772e77332e6f72672f323030302f73766722207072657365727665417370656374526174696f3d22784d696e594d696e206d656574222076696577426f783d223020302033353020333530223e3c7374796c653e2e62617365207b2066696c6c3a2077686974653b20666f6e742d66616d696c793a2073657269663b20666f6e742d73697a653a20313470783b207d3c2f7374796c653e3c726563742077696474683d223130302522206865696768743d2231303025222066696c6c3d22626c61636b22202f3ea164736f6c6343000806000a",
  "linkReferences": {},
  "deployedLinkReferences": {},
  "contractAddr": "0xb105ccFD786966c24DC011D6833b9636fD402504"
}